:100000000C9435000C945D000C945D000C945D0024
:100010000C945D000C945D000C945D000C948B00BE
:100020000C945D000C945D000C945D000C94B10088
:100030000C94D7000C945D000C945D000C945D0052
:100040000C945D000C945D000C945D000C945D00BC
:100050000C945D000C945D000C945D000C945D00AC
:100060000C945D000C945D00630111241FBECFEF62
:10007000D8E0DEBFCDBF11E0A0E0B1E0E2EAFBE0F6
:1000800002C005900D92A230B107D9F711E0A2E0AD
:10009000B1E001C01D92A734B107E1F710E0CAE654
:1000A000D0E004C02297FE010E94B505C836D107F2
:1000B000C9F70E94FD000C94CF050C9400002D9A06
:1000C00008952D98089582E091E00E945602BC01A7
:1000D00080910001882369F06C597F4F83E1683873
:1000E0007807A0F01092000182E091E068E873E1E7
:1000F0000FC06536710540F481E08093000182E015
:1001000091E060E070E004C06456704082E091E0ED
:100110000E944B0208951F920F920FB60F92112466
:100120002F933F934F935F936F937F938F939F93FF
:10013000AF93BF93EF93FF938DE291E00E9446054A
:10014000FF91EF91BF91AF919F918F917F916F91AF
:100150005F914F913F912F910F900FBE0F901F9085
:1001600018951F920F920FB60F9211242F933F9361
:100170004F935F936F937F938F939F93AF93BF93AF
:10018000EF93FF9382E091E00E944605FF91EF918B
:10019000BF91AF919F918F917F916F915F914F919F
:1001A0003F912F910F900FBE0F901F9018951F92A7
:1001B0000F920FB60F9211242F933F934F935F939B
:1001C0006F937F938F939F93AF93BF93EF93FF931F
:1001D00082E091E00E945705FF91EF91BF91AF91AE
:1001E0009F918F917F916F915F914F913F912F914F
:1001F0000F900FBE0F901F901895809164008F6E26
:1002000080936400809164008F7B80936400809170
:100210006400877F8093640083B7817F83BF8FEF03
:1002200093E00E94B9058A3029F08FEF93E06AE0ED
:100230000E94C105259A8DE291E040E25EE460E013
:1002400070E000E010E020E030E00E945D048DE20C
:1002500091E063E670E040E050E020E030E000E054
:1002600010E00E94640582E091E06FE570E040E0FC
:1002700050E021E630E0EE24FF24CC24DD240E946F
:10028000920282E091E061E00E94F10382E091E05D
:1002900060E177E20E94400282E091E064E170E078
:1002A0000E944B028DE291E00E94D60482E091E030
:1002B0000E946102789483B7816083BF889583B779
:1002C0008E7F83BFF8CF8F929F92AF92BF92CF92D3
:1002D000DF92EF92FF920F931F938DE291E061E026
:1002E00040EB50E021EB30E003EB10E074EBE72E45
:1002F000F12CE2EBCE2ED12CF0E7AF2EB12C8824DE
:1003000083940E94AC0200D086E890E0EDB7FEB77F
:100310009283818382E091E060E870E041E850E000
:1003200020E030E008E810E0AAE8EA2EF12CCC2426
:10033000DD24B4E8AB2EB12CAFE68A2E912C0E94BE
:10034000AE010F900F901F910F91FF90EF90DF90F3
:10035000CF90BF90AF909F908F9008952F923F9233
:100360004F925F926F927F928F929F92AF92BF92C5
:10037000CF92DF92EF92FF920F931F93CF93DF9371
:1003800000D0CDB7DEB73C011A01290169837A8319
:100390000E94E20269817A81F30171836083338272
:1003A0002282538E428E158F048FF78EE68ED1A255
:1003B000C0A2B3A2A2A2938682868F89988D96A3AB
:1003C00085A380E1808B81E08687178614A212A620
:1003D00011A610A617A20F900F90DF91CF911F9139
:1003E0000F91FF90EF90DF90CF90BF90AF909F90D4
:1003F0008F907F906F905F904F903F902F900895D7
:10040000FC018685863011F1873018F48230B8F50A
:1004100005C0873079F0883091F525C0A081B18181
:100420008C918C7F8C930280F381E02D8081877E7C
:10043000886017C0A081B1818C918C7F8C930280E1
:10044000F381E02D8081877E80610BC0A081B18126
:100450008C918C7F82608C930280F381E02D80816F
:10046000886180830895A081B1818C918C7F8C9369
:100470000280F381E02D8081877E806180830895F2
:100480002FB7F894DC015C96ED91FC915D97718338
:1004900060832FBF08952FB7F894DC015E96ED912D
:1004A000FC915F97718360832FBF08952FB7F894F5
:1004B000DC015E96ED91FC915F97808191812FBF69
:1004C00008951F93CF93DF93EC011FB7F894EAA12F
:1004D000FBA1118210826D850E94E703CE010E946C
:1004E00000028A899B89009729F0EA85FB85808133
:1004F00082608083EE8DFF8D80819181009781F0F5
:100500008E899F89009761F0EA85FB8580818460F0
:10051000808381E0898B1FBFDF91CF911F91089568
:10052000198AF9CFCF92DF92EF92FF920F931F9328
:10053000FC01738B628B558B448B378B268B118F11
:10054000008FF0A6E7A2D2A6C1A61F910F91FF903F
:10055000EF90DF90CF9008958F92AF92BF92CF929D
:10056000DF92EF92FF920F931F93CF93DF93CDB75C
:10057000DEB7FC01518340833383228315830483D8
:10058000F782E682D186C086B386A286848681E021
:100590008687678788E0808B1586118A158A148A7A
:1005A000118E108E138A128A178A168ADF91CF91C4
:1005B0001F910F91FF90EF90DF90CF90BF90AF9081
:1005C0008F90089508958F929F92AF92BF92CF928D
:1005D000DF92EF92FF920F931F93CF93DF935C0113
:1005E0006A017B014901E801DC0150968C9150972A
:1005F000883039F0803151F080E090E0A0E0B0E048
:1006000009C080E091E0A0E0B0E004C080E090E0AC
:10061000A1E0B0E0F5012785222321F0213009F087
:10062000C6C049C08C159D05AE05BF0520F081E010
:10063000D4018C9347C0AC01BD01F3E0440F551FBA
:10064000661F771FFA95D1F74C155D056E057F057E
:1006500020F082E0F401808349C0AC01BD01E6E0F6
:10066000440F551F661F771FEA95D1F74C155D059E
:100670006E057F0510F083E05FC04427582F692F77
:100680007A2F4C155D056E057F0520F084E0F4019E
:10069000808377C02AE0880F991FAA1FBB1F2A9565
:1006A000D1F78C159D05AE05BF0508F482C085E025
:1006B000D4018C9378C08C159D05AE05BF0528F03C
:1006C000F401208381E090E070C0AC01BD0103E043
:1006D000440F551F661F771F0A95D1F74C155D050E
:1006E0006E057F0530F082E0D4018C9388E090E0C5
:1006F0005CC0AC01BD0115E0440F551F661F771F9C
:100700001A95D1F74C155D056E057F0530F083E035
:10071000F401808380E290E048C0AC01BD01F6E0C6
:10072000440F551F661F771FFA95D1F74C155D05CD
:100730006E057F0530F084E0D4018C9380E490E076
:1007400034C0AC01BD01E7E0440F551F661F771FA1
:10075000EA95D1F74C155D056E057F0530F085E013
:10076000F401808380E890E020C04427582F692F4F
:100770007A2F4C155D056E057F0530F086E0D401BB
:100780008C9380E091E011C02AE0880F991FAA1F86
:10079000BB1F2A95D1F78C159D05AE05BF0548F006
:1007A00087E0F401808380E094E09983888380E08F
:1007B00001C081E0DF91CF911F910F91FF90EF90E9
:1007C000DF90CF90BF90AF909F908F900895DC0105
:1007D0001296ED91FC9113978081887F682B60833E
:1007E0000895FC0165870895FC018685823079F0C3
:1007F000823038F08430E1F0843078F0853079F55B
:1008000023C0A081B1818C918C7F82600AC0A081BD
:10081000B1818C918C7F81600FC0A081B1818C915E
:1008200083608C930280F381E02D8081877F0AC0F2
:10083000A081B1818C9183608C930280F381E02D43
:100840008081886080830895A081B1818C918360CC
:100850008C930280F381E02D8081877F80830895CF
:10086000EF92FF921F93CF93DF9300D0CDB7DEB707
:100870007C011FB7F894DC011D966C932A83498391
:100880000E94E703D7011896ED91FC911997108209
:100890001496ED91FC911597498140831696ED9140
:1008A000FC9117972A8120831FBF0F900F90DF9133
:1008B000CF911F91FF90EF9008952F923F924F920A
:1008C0005F926F927F928F929F92AF92BF92CF92E0
:1008D000DF92EF92FF920F931F93CF93DF9300D09D
:1008E0000F92CDB7DEB71C0168017901CB01BA01C7
:1008F0002AE030E040E050E00E9472054B015C01CC
:10090000C701B6010E9472052B013C01AB01B30186
:10091000481459046A047B0410F4A401B501C10110
:100920009E012F5F3F4F8E010E5F1F4F0E94E3021B
:10093000882329F5CA80DB80EE24FF24C501B40199
:10094000A70196010E94910549015A01C301B20114
:10095000A70196010E94910589019A0108948108D6
:100960009108A108B1080150104020403040C10159
:100970006981482D202F0E94300480E001C081E071
:100980000F900F900F90DF91CF911F910F91FF90DB
:10099000EF90DF90CF90BF90AF909F908F907F901F
:1009A0006F905F904F903F902F9008951F93CF933B
:1009B000DF93EC011FB7F894E885F98510826D8507
:1009C0000E94E703CE010E94F4038A899B89009765
:1009D00069F0EA85FB85208181E090E00C8402C00B
:1009E000880F991F0A94E2F7282B2083EE81FF815C
:1009F00080818823D9F08E899F890097B9F0EA8594
:100A0000FB8540812C8530E02F5F3F4F81E090E0F7
:100A100002C0880F991F2A95E2F7482B408381E096
:100A2000898B1FBFDF91CF911F910895198AF9CF4C
:100A30001F93CF93DF93EC011FB7F89460E00E94FF
:100A4000E703EA85FB85408121E030E0C9010C84A1
:100A500002C0880F991F0A94E2F78095842380834F
:100A60008989882371F0EA85FB8540818C8590E037
:100A7000019602C0220F331F8A95E2F720952423A6
:100A800020831FBFDF91CF911F910895CF93DF93F4
:100A9000EC018E85882319F4CE010E941805EA899D
:100AA000FB898C899D890995DF91CF910895DC019F
:100AB0005696ED91FC915797309729F058968D9165
:100AC0009C915997099508950F931F93FC01738B7F
:100AD000628B558B448B378B268B118F008F1F9128
:100AE0000F910895629FD001739FF001829FE00DE6
:100AF000F11D649FE00DF11D929FF00D839FF00D9D
:100B0000749FF00D659FF00D9927729FB00DE11D48
:100B1000F91F639FB00DE11DF91FBD01CF01112425
:100B20000895A1E21A2EAA1BBB1BFD010DC0AA1F2E
:100B3000BB1FEE1FFF1FA217B307E407F50720F046
:100B4000A21BB30BE40BF50B661F771F881F991FC1
:100B50001A9469F760957095809590959B01AC010A
:100B6000BD01CF010895EE0FFF1F0590F491E02D18
:100B70000994F999FECF92BD81BDF89A992780B565
:100B80000895262FF999FECF1FBA92BD81BD20BDD1
:100B90000FB6F894FA9AF99A0FBE01960895F89450
:020BA000FFCF85
:020BA200010050
:00000001FF
